:020000040800F2
:100000008006002089010008110F00080F0E00086B
:100010000D0F000899050008BD160008000000003B
:100020000000000000000000000000000D130008A8
:10003000910C000800000000C9120008F913000824
:10004000A3010008A3010008A3010008A301000800
:10005000A3010008A3010008A3010008A3010008F0
:10006000A3010008A3010008A3010008A3010008E0
:10007000A3010008A3010008A3010008A3010008D0
:10008000A3010008A3010008A3010008A3010008C0
:10009000A3010008A3010008A3010008A3010008B0
:1000A000A3010008A3010008A3010008A3010008A0
:1000B0005D140008A1140008A3010008A3010008B2
:1000C000A3010008A3010008A3010008A301000880
:1000D000A3010008A3010008A3010008A301000870
:1000E000A3010008A3010008A301000800F002F822
:1000F00000F03AF80AA090E8000C82448344AAF188
:100100000107DA4501D100F02FF8AFF2090EBAE885
:100110000F0013F0010F18BFFB1A43F0010318473B
:10012000E81B0000081C0000103A24BF78C878C102
:10013000FAD8520724BF30C830C144BF04680C60ED
:10014000704700000023002400250026103A28BF35
:1001500078C1FBD8520728BF30C148BF0B60704739
:100160001FB51FBD10B510BD00F031F81146FFF7E7
:10017000F7FF01F0A5FA00F04FF803B4FFF7F2FF24
:1001800003BC00F053F800000948804709480047C5
:10019000FEE7FEE7FEE7FEE7FEE7FEE7FEE7FEE737
:1001A000FEE7FEE704480549054A064B7047000094
:1001B000FD130008ED0000088000002080060020EC
:1001C000800200208002002070477047704775460B
:1001D00000F028F8AE4605006946534620F00700B7
:1001E000854618B020B5FFF7DDFFBDE820404FF091
:1001F00000064FF000074FF000084FF0000B21F011
:100200000701AC46ACE8C009ACE8C009ACE8C009DD
:10021000ACE8C0098D4670470446AFF30080204625
:10022000FFF7ABFF004870471C0000200149182071
:10023000ABBEFEE7260002007047000010B52B4859
:10024000007801283DD12AA20121084601F008F8D2
:100250002CA20121022001F003F82FA2012103208A
:1002600000F0FEFF2CE000F011FE0446012C1DD131
:1002700041032E4800F0C4FD00201C49087000F026
:100280006FF82BA20121084600F0EAFF18A2012115
:10029000022000F0E5FF16A20121032000F0E0FF9C
:1002A00028A20721022000F0DBFF10BD1F48C06814
:1002B00080F400501D49C860C82000F0EAFC00BF6F
:1002C000D1E72248007801280ED121480078214941
:1002D0000978884208D12048007820490978884266
:1002E00002D101200149087000BFDEE706000020AE
:1002F00020202020202020202020202020202020FE
:10030000200000002020205368757420416C617229
:100310006D2020202000000020596573202020201F
:10032000202020202020202000000000001001407C
:100330002020202020436C6F636B3A202020202057
:10034000200000003A20203A0000000005000020B4
:100350000000002003000020010000200400002015
:1003600010B50B48007880F0010009490870084674
:100370000078012805D107A20F21042000F070FFAA
:1003800004E005A20F21042000F06AFF10BD000068
:10039000050000202A000000200000002DE9F047A1
:1003A0005B48007845B25B48007846B25A4800780E
:1003B0004FFA80F90027B84602232A46052118463D
:1003C00000F02CFF022332460821184600F026FFD9
:1003D00002234A460B21184600F020FF93E000F06C
:1003E00055FD0446042C41D14CA20121084600F0E1
:1003F00037FF4FA20121022000F032FF51A201215C
:10040000032000F02DFF0AE000F040FD0446012C1F
:1004100001D1804604E0022C01D1A04600E0F3E7C0
:1004200000BFB8F1010F02D0B8F1020F1ED14AA2ED
:100430000121084600F014FF38A20121022000F03B
:100440000FFF36A20121032000F00AFF47A2072177
:10045000022000F005FFB8F1010F06D12C490D7004
:100460002C490E702C4981F800904DE0022C03D1EC
:10047000781CC7B207F00307C7B9012C04D1681C68
:1004800045B2182D00D10025032C04D1681E45B2B9
:10049000002D00DA172502232A460521184600F010
:1004A000BDFE34A20521032000F0DAFE012F18D191
:1004B000012C04D1701C46B23C2E00D10026032C26
:1004C00004D1701E46B2002E00DA3B2602233246CB
:1004D0000821184600F0A2FE29A20521032000F001
:1004E000BFFE022F0ED1012C01D14FF000090223D3
:1004F0004A460B21184600F091FE24A20521032054
:1005000000F0AEFE00BF6AE700BFBDE8F087000064
:1005100000000020010000200200002020202020F8
:10052000202020202020202020202020200000002B
:100530005768657468657220746F20736176653FD3
:10054000000000002059657320202020202020205A
:100550004E4F2020000000002020202020436C6F00
:10056000636B3A2020202020200000003A20203A0F
:10057000000000002D2D2020202020202000000041
:100580002020202D2D2020200000000020202020D1
:1005900020202D2D0000000000BFFEE710B505A2B1
:1005A0000121084600F05CFE07A20721022000F0AE
:1005B00057FE10BD2020202020436C6F636B3A2033
:1005C00020202020000000003A20203A00000000F7
:1005D0002DE9F0415148007845B25148007846B2C3
:1005E000002750A20121084600F03AFE52A2012144
:1005F000022000F035FE50A20121032000F030FE61
:1006000052A20821022000F02BFE02232A460621D6
:10061000184600F003FE022332460921184600F076
:10062000FDFD77E000F032FC04464FF00008042C9A
:1006300034D13A490D703A490E703FA20121084663
:1006400000F00EFE43A20121022000F009FE46A2A6
:100650000121032000F004FE06E000F017FC044630
:10066000012C01D1804600E0F7E700BFB8F1010F8F
:1006700014D142A20121084600F0F2FD2EA2012170
:10068000022000F0EDFD2CA20121032000F0E8FD86
:100690003FA20721022000F0E3FD3CE0022C03D141
:1006A000781CC7B207F00107C7B9012C04D1681C38
:1006B00045B2182D00D10025032C04D1681E45B287
:1006C000002D00DA172502232A460621184600F0DD
:1006D000A5FD31A20621032000F0C2FD012F18D193
:1006E000012C04D1701C46B23C2E00D10026032CF4
:1006F00004D1701E46B2002E00DA3B260223324699
:100700000921184600F08AFD26A20621032000F0E8
:10071000A7FD00BF86E700BFBDE8F0810300002011
:10072000040000202020202020416C61726D3A20BE
:100730002020202020000000202020202020202019
:100740002020202020202020200000003A202020EF
:1007500020000000202020202053617665642020A6
:100760002020202000000000205965732020202038
:1007700020202020202020200000000020202020F9
:1007800020436C6F636B3A20202020202000000063
:100790003A20203A000000002D2D2020202020208B
:1007A000000000002020202D2D2020001FB5012159
:1007B000084600F08BFD4FF0804000F021FF002044
:1007C000ADF80A0042F20F70ADF8080041F61F4084
:1007D000ADF804000020ADF8060001A94FF08040FC
:1007E00000F014FF0121880700F0DEFE012211460F
:1007F000900700F0FCFE4FF4A06000F0C3FB1C204B
:100800008DF8000001208DF8030002208DF8010012
:1008100001208DF80200684600F07CFB012188076A
:1008200000F0C8FE1FBD000010B51A4800783C2833
:100830001ADB19480078401C174908700020154938
:100840000870154800783C280EDB14480078401CDE
:1008500012490870002010490870104800781828C4
:1008600002DB00200D49087002230C4802780521A4
:10087000184600F0D3FC02230748027808211846E6
:1008800000F0CCFC0223034802780B21184600F04C
:10089000C5FC10BD02000020010000200000002067
:1008A0002DE9F047694890F90050694890F90060D7
:1008B0004FF0000867A20121084600F0D1FC6AA2AF
:1008C0000121022000F0CCFC67A20121032000F0EE
:1008D000C7FC6AA20721022000F0C2FC02232A46BC
:1008E0000521184600F09AFC0223324608211846DA
:1008F00000F094FC02233A460B21184600F08EFCCF
:100900009FE000F0C3FA04464FF00009042C39D1EF
:100910004E4805704E4806705A48077052A2012191
:10092000084600F09DFC58A20121022000F098FC2E
:100930005AA20121032000F093FC06E000F0A6FA81
:100940000446012C01D1814600E0F7E700BFB9F170
:10095000010F17D156A20121084600F081FC42A2E6
:100960000121022000F07CFC3FA20121032000F0C5
:1009700077FC42A20721022000F072FC01205149BD
:1009800008705FE0022C05D108F1010000F0FF08BB
:1009900008F00308B8F1000F18D1012C04D1681C2D
:1009A00045B2182D00D10025032C04D1681E45B294
:1009B000002D00DA172502232A460521184600F0EB
:1009C0002DFC41A20521032000F04AFCB8F1010FE3
:1009D00018D1012C04D1701C46B23C2E00D1002647
:1009E000032C04D1701E46B2002E00DA3B260223EF
:1009F00032460821184600F011FC36A205210320DA
:100A000000F02EFCB8F1020F1AD1012C05D107F12C
:100A10000A0047B23C2F00DB0027032C05D1A7F1C9
:100A20000A0047B2002F00DC3C2702233A460B2184
:100A3000184600F0F3FB2AA20521032000F010FC69
:100A400000BF5EE700BFBDE8F087000007000020A0
:100A5000080000202020436F756E7420446F776E6D
:100A60003A202020200000002020202020202020CC
:100A70002020202020202020200000003A20203AA2
:100A80000000000009000020202020202053617673
:100A9000656420202020202000000000205965737C
:100AA00020202020202020202020202000000000C6
:100AB0002020202020436C6F636B3A2020202020D0
:100AC000200000000A0000202D2D202020202020C2
:100AD000200000002020202D2D20202000000000DC
:100AE0002020202020202D2D0000000010B53C48A3
:100AF0000078012872D13B4890F90000002828DCDA
:100B0000394890F90000002820DD3B203549087065
:100B100035480078401E40B233490870084690F9C5
:100B20000000002815DC314890F90000002809DD9C
:100B30002E480078401E40B22C4908703B202A49BC
:100B4000087006E001202A49087002E001202849C7
:100B5000087027480078012840D126A201210846C4
:100B600000F07EFB28A20121022000F079FB2BA2DD
:100B70000121032000F074FB2DE0002400F086F931
:100B80000446012C1DD12AA20121084600F068FB71
:100B900018A20121022000F063FB16A2012103200C
:100BA00000F05EFB27A20721022000F059FB002085
:100BB0000F4908700A4908706103244800F020F9C1
:100BC0000BE02248C06880F400502049C860C8206B
:100BD00000F05FF800BFD0E700E000BF10BD0000EC
:100BE0000A00002009000020080000200700002063
:100BF0000B0000202020202020202020202020204A
:100C00002020202020000000202020536875742020
:100C1000436F756E742020202000000020596573FA
:100C20002020202020202020202020202000000024
:100C30002020202020436C6F636B3A20202020204E
:100C4000200000003A20203A00000000001001407F
:100C500010B502230B4890F900200521184600F03A
:100C6000DDFA0223084890F900200821184600F018
:100C7000D5FA0223054890F900200B21184600F010
:100C8000CDFA10BD07000020080000200900002058
:100C9000704700B5034603E04FF47A7000F005F8A2
:100CA0001800A3F10103F7D100BD00EBC001C9009A
:100CB0004FF0E0225161002191610521116100BFD7
:100CC0004FF0E021096901F480310029F8D00421B6
:100CD0004FF0E022116170472DE9F04102460025F6
:100CE0000026002000230024002791F803C00CF008
:100CF0000F0591F803C00CF0100CBCF1000F03D0ED
:100D000091F802C04CEA050591F800C0BCF1000F53
:100D100031D0146800202BE04FF0010C0CFA00F3E6
:100D2000B1F800C00CEA03069E4220D183004FF0C8
:100D30000F0C0CFA03F7BC4305FA03FC4CEA04045D
:100D400091F803C0BCF1280F06D14FF0010C0CFA4A
:100D500000FCC2F814C00AE091F803C0BCF1480FCF
:100D600005D14FF0010C0CFA00FCC2F810C0401C79
:100D70000828D1D31460B1F800C0BCF1FF0F34DDF6
:100D8000546800202EE000F1080C4FF0010808FA2A
:100D90000CF3B1F800C00CEA03069E4221D1830097
:100DA0004FF00F0C0CFA03F7BC4305FA03FC4CEAB6
:100DB000040491F803C0BCF1280F05D100F1080C20
:100DC00008FA0CF8C2F8148091F803C0BCF1480F7F
:100DD00007D100F1080C4FF0010808FA0CF8C2F82E
:100DE0001080401C0828CED35460BDE8F081024634
:100DF000002093680B400BB1012000E000207047F9
:100E0000016170470AB1016100E04161704700BFB4
:100E1000FEE700001FB50121022000F057FA1A4832
:100E200000F0EEFB0020ADF80A0042F20F70ADF8C2
:100E300008004720ADF804000020ADF8060001A925
:100E4000114800F0E3FB01210F4800F0ADFB012247
:100E500011460D4800F0CBFB4FF4E06000F092F833
:100E60001D208DF8000001208DF8030002208DF870
:100E7000010000208DF80200684600F04BF80121C7
:100E8000014800F097FB1FBD0004004000201049FE
:100E90008978012903D1012000210D4A91700C4964
:100EA000C978012903D102200021094AD1700849DB
:100EB000897A012903D10320002205498A72044955
:100EC000C97A012903D1042000220149CA7270475E
:100ED0000C00002008B50121102000F007FA4FF4A3
:100EE0000050ADF8000010208DF8030003208DF8AD
:100EF000020069460448FFF7EFFE4FF40051024834
:100F0000FFF77EFF08BD00000010014000BFFEE7B4
:100F10007047000070B5002100230F22C47804B38D
:100F2000154C246804F4E064C4F5E064210AC1F1BE
:100F30000403CA40447804FA03F18478144021433E
:100F400009010E4C0678A155047804F01F05012410
:100F5000AC4005786D11AD0005F1E025C5F8004104
:100F600009E0047804F01F050124AC40044D067824
:100F7000761145F8264070BD0CED00E000E400E07D
:100F800080E100E002490143024A1160704700001D
:100F90000000FA050CED00E070B500240EE0002121
:100FA000204600F0F0F8002504E0002000F07CF975
:100FB000681CC5B2802DF8DB601CC4B2082CEEDBC7
:100FC00070BD000008B50121082000F08FF94FF432
:100FD0008070ADF8000014208DF8030003208DF818
:100FE000020069460A48FFF777FE4FF40070ADF83B
:100FF000000069460648FFF76FFE0122110204480F
:10100000FFF700FF012251020148FFF7FBFE08BD78
:10101000000C014070B50546002415E080202041F9
:1010200000EA05024FF400710E48FFF7EBFE0122C3
:1010300011020C48FFF7E6FE00224FF480710948C8
:10104000FFF7E0FE601CC4B2082CE7DB01221102AE
:101050000448FFF7D7FE00224FF480710148FFF7E4
:10106000D1FE70BD000C014010B5012251020A48AA
:10107000FFF7C8FE012211020748FFF7C3FE002256
:101080004FF400710448FFF7BDFE00224FF4807159
:101090000148FFF7B7FE10BD000C014010B500225B
:1010A0004FF400710648FFF7ADFE0122110204481B
:1010B000FFF7A8FE012251020148FFF7A3FE10BD71
:1010C000000C014070B5002406E0002500E06D1C16
:1010D000B5F57A7FFBD3641CB4F57A7FF5D3FFF7BF
:1010E00071FFAE2000F0D0F8D52000F0CDF88020C0
:1010F00000F0CAF8A82000F0C7F83F2000F0C4F8BC
:10110000D32000F0C1F8002000F0BEF8402000F02D
:10111000BBF8A12000F0B8F8C82000F0B5F8DA203C
:1011200000F0B2F8122000F0AFF8812000F0ACF827
:10113000CF2000F0A9F8D92000F0A6F8F12000F0A7
:10114000A3F8DB2000F0A0F8302000F09DF8A420E8
:1011500000F09AF8A62000F097F88D2000F094F89F
:10116000142000F091F8AF2000F08EF8FFF714FF84
:1011700070BD10B50246012000E050430B00A1F104
:101180000101FAD110BD70B505460C4645F0B0001E
:1011900000F07AF8102141EA141000F075F804F01C
:1011A0000F0000F071F870BD2DE9F04105460E46C4
:1011B0001746721ED206110E6A1E5206100EFFF757
:1011C000E2FF002409E0A7F12001134A02EB01111C
:1011D000085D00F069F8601CC4B2082CF3DB721ED5
:1011E000D206110E6A1E012303EB4202D0B2FFF7B2
:1011F000CAFF00240BE0A7F12001074A02EB01120D
:1012000004F10801505C00F04FF8601CC4B2082CD7
:10121000F1DBBDE8F0810000181700082DE9F04768
:1012200080460E4617461D46002415E0281B411E29
:101230000A20FFF79EFFB7FBF0F00A21B0FBF1F2A6
:1012400001FB120000F130093019C1B24A46404694
:10125000FFF7AAFF601CC4B2AC42E7DBBDE8F08731
:101260002DE9F04107460E461546002407E02A5DA9
:101270003019C1B23846FFF797FF601CC4B2285D31
:101280000028F4D1BDE8F08110B50446FFF7ECFE6C
:101290007820FFF7BFFE0020FFF7BCFE2046FFF7D7
:1012A000B9FEFFF7FBFE10BD10B50446FFF7DCFEEC
:1012B0007820FFF7AFFE4020FFF7ACFE2046FFF797
:1012C000A9FEFFF7EBFE10BD7047000029B1064AEA
:1012D000D2690243044BDA6104E0034AD2698243D3
:1012E000014BDA61704700000010024029B1064A44
:1012F00092690243044B9A6104E0034A9269824373
:10130000014B9A617047000000100240704710B511
:1013100000F002F810BD00000CB500200190009014
:101320003348006840F480303149086000BF3048DD
:10133000006800F4003000900198401C0190009873
:1013400018B90198B0F5A06FF1D12948006800F4F0
:10135000003010B10120009001E0002000900098C2
:10136000012843D12348006840F01000214908605B
:101370000846006820F0030008600846006840F056
:10138000020008601A4840681949486008464068E9
:1013900048600846406840F48060486008464068FD
:1013A00020F47C1048600846406840F4E81048602B
:1013B0000846006840F08070086000BF0C48006874
:1013C00000F000700028F9D00948406820F00300C0
:1013D000074948600846406840F00200486000BF86
:1013E0000348406800F00C000828F9D10CBD00004B
:1013F00000100240002002407047000010B5134862
:10140000006840F001001149086008464068104932
:1014100008400E494860084600680E4908400B49DC
:1014200008600846006820F480200860084640688C
:1014300020F4FE0048604FF41F008860FFF767FF4C
:101440004FF000600449086010BD00000010024029
:101450000000FFF8FFFFF6FE08ED00E010B50121E7
:10146000880700F0B3F8012812D10A480078401C20
:101470000849087008480078012805D10748007815
:10148000401E40B2054908700121880700F08FF81E
:1014900010BD0000020000200A000020090000200A
:1014A00010B501213D4800F091F8012874D1C10226
:1014B0003B48FFF79CFC08B1012000E000203949BF
:1014C000487002213648FFF792FC08B1012100E084
:1014D000002134484172002457E0324810F83400AB
:1014E00020B1012810D002284CD11CE02D4800EB7F
:1014F000C400407838B901202A4901F8340000209E
:1015000001EBC40148603DE0264800EBC400407890
:1015100020B90220234901F8340003E000202149CA
:1015200001F834002EE01F4800EBC4004078012889
:101530000ED100201B4901F83400084600EBC4001E
:10154000406846281DD2012001EBC401887018E0D4
:10155000144800EBC4004068401C124901EBC40170
:101560004860104800EBC4004068462809D90120B3
:101570000C4901EBC401C87000200A4901EBC40109
:10158000486000BF00BF601CC4B2022CA5DB012173
:10159000024800F00CF800BF10BD0000000400403D
:1015A000000C01400C000020CA4302827047CA436D
:1015B0000282704721B1028842F00102028004E0F9
:1015C00002884FF6FE731A400280704730B502461B
:1015D000002000230024158A05EA0103958905EA05
:1015E000010413B10CB1012000E0002030BD1AB19C
:1015F00083890B43838102E083898B438381704716
:1016000001894FF6F872114001817047002202886B
:101610001D4B98420ED01D4B98420BD0B0F1804F1D
:1016200008D01B4B984205D01A4B984202D01A4B57
:10163000984204D14FF68F731A404B881A43174BC8
:10164000984207D0164B984204D04FF6FF431A40F9
:10165000CB881A4302808B8883850B8803850A4BCD
:1016600098420BD0094B984208D00E4B984205D0B7
:101670000D4B984202D00D4B984201D10B7A038654
:101680000123838270470000002C01400034014098
:101690000004004000080040000C00400010004022
:1016A0000014004000400140004401400048014057
:1016B00010B5FFF77BF8FFF7ADFB10BD00BFFEE7ED
:1016C000FFF700FDFFF7F4FFFEF768FFFFF702FCEE
:1016D0001FE01048007810B9FFF7A6F801E0FFF707
:1016E000B7FAFEF7ABFDFFF701FAFFF7CFFB0446B1
:1016F000012C01D1FEF734FE022C01D1FEF74EFE83
:10170000032C01D1FEF764FF042C01D1FFF7C8F8C8
:1017100000BFDEE70A00002000000000000000001B
:101720000000000000000000000000F800000000C1
:10173000000000333000000000100C06100C060002
:10174000000000000000000040C07840C078400069
:10175000043F04043F040400007088FC08300000CB
:10176000001820FF211E0000F008F000E018000023
:1017700000211C031E211E0000F0088870000000DC
:101780001E2123241927211010160E00000000002E
:101790000000000000000000000000E0180402004B
:1017A000000000071820400000020418E0000000BC
:1017B0000040201807000000404080F080404000BA
:1017C0000202010F01020200000000F00000000010
:1017D0000101011F010101000000000000000000E4
:1017E00080B0700000000000000000000000000059
:1017F00000010101010101010000000000000000E2
:10180000003030000000000000000000806018047C
:10181000006018060100000000E010080810E00059
:10182000000F102020100F00001010F80000000022
:101830000020203F20200000007008080888700069
:1018400000302824222130000030088888483000E9
:101850000018202020110E000000C02010F8000009
:1018600000070424243F240000F8088888080800A2
:101870000019212020110E0000E0108888180000B7
:10188000000F112020110E0000380808C838080089
:101890000000003F00000000007088080888700009
:1018A000001C222121221C0000E010080810E0008A
:1018B0000000312222110F00000000C0C000000013
:1018C0000000003030000000000000800000000038
:1018D0000000806000000000000080402010080030
:1018E00000010204081020004040404040404000F9
:1018F00004040404040404000008102040800000D4
:101900000020100804020100007048080808F000D8
:101910000000003036010000C030C828E810E000A8
:101920000718272423140B000000C038E000000033
:10193000203C23020227382008F88888887000009D
:10194000203F202020110E00C03008080808380071
:10195000071820202010080008F808080810E000E8
:10196000203F202020100F0008F88888E808100089
:10197000203F20202320180008F88888E80810005D
:10198000203F200003000000C03008080838000095
:1019900007182020221E020008F808000008F80896
:1019A000203F210101213F20000808F8080800001D
:1019B0000020203F2020000000000808F808080050
:1019C000C08080807F00000008F888C028180800C8
:1019D000203F20012638200008F808000000000001
:1019E000203F20202020300008F8F800F8F80800F8
:1019F000203F003F003F200008F830C00008F808F2
:101A0000203F200007183F00E01008080810E00001
:101A10000F10202020100F0008F808080808F00018
:101A2000203F210101010000E01008080810E0003B
:101A30000F18242438504F0008F8888888887000D0
:101A4000203F2000030C3020007088080808380070
:101A50000038202121221C00180808F80808180066
:101A60000000203F2000000008F808000008F808E7
:101A7000001F202020201F000878880000C8380898
:101A8000000007380E010000F80800F80008F80010
:101A9000033C0700073C03000818688080681808AA
:101AA00020302C03032C30200838C800C838080028
:101AB0000000203F2000000010080808C838080077
:101AC0002038262120201800000000FE020202001B
:101AD0000000007F40404000000C30C000000000CB
:101AE000000000010638C00000020202FE000000F3
:101AF000004040407F000000000004020202040099
:101B000000000000000000000000000000000000D5
:101B100080808080808080800002020400000000BD
:101B200000000000000000000000808080800000B5
:101B30000019242222223F2008F8008080000000A3
:101B4000003F112020110E00000000808080000066
:101B5000000E112020201100000000808088F80075
:101B6000000E112020103F200000808080800000A7
:101B7000001F222222221300008080F0888888180B
:101B80000020203F20200000000080808080800016
:101B9000006B94949493600008F8008080800000AB
:101BA000203F210000203F20008098980000000086
:101BB0000020203F202000000000008098980000B6
:101BC00000C08080807F000008F8000080808000D6
:101BD000203F24022D302000000808F800000000FB
:101BE0000020203F202000008080808080808000B6
:101BF000203F20003F20003F808000808080000048
:101C0000203F210000203F200000808080800000D5
:101C1000001F202020201F00808000808000000006
:101C200080FFA12020110E00000000808080800035
:101C3000000E112020A0FF80808080008080800026
:101C400020203F2120000100000080808080800053
:101C50000033242424241900008080E080800000C8
:101C60000000001F20200000808000000080800015
:101C7000001F202020103F20808080000080808076
:101C800000010E3008060100808000800080808006
:101C90000F300C030C300F0000808000808080002B
:101CA0000020312E0E312000808080000080808056
:101CB00080818E7018060100008080808080800006
:101CC0000021302C2221300000000000807C020224
:101CD00000000000003F404000000000FF00000046
:101CE00000000000FF0000000002027C80000000F5
:101CF0000040403F00000000000601010202040411
:101D00000000000000000000281D00080000002066
:101D10000C00000028010008341D00080C00002001
:101D200074060000440100081223020000000000B5
:041D300000000000AF
:04000005080000ED02
:00000001FF
